:100000000C94A5000C94CD000C94CD000C94CD0064
:100010000C94CD000C94CD000C94CD000C94CD002C
:100020000C94CD000C94CD000C94CD000C94CD001C
:100030000C94CD000C94CD000C94CD000C94CD000C
:100040000C94AD0F0C94CD000C947C0E0C94560EB9
:100050000C94CD000C94CD000C94CD000C94CD00EC
:100060000C94CD000C94CD000207050708070B0780
:100070000E071107140717074641494C45442074E1
:100080006F2073656E642043414E00000000002322
:1000900000260029000404040404040404020202EB
:1000A00002020203030303030301020408102040B9
:1000B0008001020408102001020408102000000042
:1000C0000800020100000304070000000000000017
:1000D0000000000000240027002A0053746172749D
:1000E0000050726F7A6573736F726665686C6572C3
:1000F0002000456D7066616E67736C61656E676543
:100100003B0053686F72743A204576656E74002028
:1001100020204576656E7420004C6F6E673A204E45
:100120006F64654E6F200077726974652076617226
:1001300020746F20656570726F6D000000000025EF
:100140000028002B0000751D711D11241FBECFEF6C
:10015000D8E0DEBFCDBF12E0A0E0B1E0E0EDF8E412
:1001600002C005900D92A632B107D9F725E0A6E2AC
:10017000B2E001C01D92A83EB207E1F710E0C4EA68
:10018000D0E004C02197FE010E943E20C33AD1076F
:10019000C9F70E946B150C945B240C9400002F92FD
:1001A0003F924F925F926F927F928F929F92AF9207
:1001B000BF92CF92DF92EF92FF920F931F93CF9354
:1001C000DF938091D5058F3F29F48091D4058F3F2F
:1001D00009F44FC00E94A10F0091D8051091D905D4
:1001E0002091DA053091DB05DC01CB01801B910BFE
:1001F000A20BB30B84369105A105B105D0F1809116
:100200004805909149050597A9F48091D70581305B
:1002100041F460E08091D5050E94D70E1092D70579
:100220001EC061E08091D5050E94D70E81E08093C9
:10023000D70515C08091B604813039F460E0809113
:10024000D4050E94D70E61E006C061E08091D4051C
:100250000E94D70E60E08091D5050E94D70E0E94C3
:10026000A10F6093D8057093D9058093DA05909318
:10027000DB052091DC052F3F71F130E0F901E354FB
:10028000FF4F8491F901E755FF4FD491F901EB56E7
:10029000FF4FC491CC2379F081110E94AE0EEC2F58
:1002A000F0E0EE0FFF1FE557FF4FA591B491EC91E1
:1002B000ED2309F05FC38091DD05813061F40E9478
:1002C000A10F60934A0570934B0580934C05909362
:1002D0004D051092DD0580914805909149050497E0
:1002E00009F072C00E94A10F00914A0510914B05C0
:1002F00020914C0530914D05DC01CB01801B910B09
:10030000A20BB30B893E9340A105B10508F45CC074
:1003100083E090E090934905809348054091CE0595
:10032000AFE4B5E081E0841740F02091CE0530E0E5
:10033000EEE4F5E080E090E017C02D919FEF980F7C
:10034000E92FF0E0EF01C25BDA4F3881E15BFA4F51
:10035000231718F430839150F3CF20838F5FE3CFBE
:100360004191C41730F00196C1E0C80F821793077E
:10037000BCF3C09388046C2F82E190E00E943109A5
:10038000C093E5048091F9048823F1F08091E6049C
:100390009091E70422E52093B7049093B8048093EA
:1003A000B9041092BA041092BB041092BC041092CB
:1003B000BD041092BE046C2F70E080E090E027EB4B
:1003C00034E043E00E94EC1143E0242E312CD1E0D4
:1003D00099249A9459E5B52E63ED762E72E5872E11
:1003E0001092FA048091420590914305892B09F0FF
:1003F00008C621E030E03093430520934205809108
:10040000460590914705181619062CF010924305E1
:1004100010924205F6C58091440590914505CC9710
:1004200024F01092450510924405E8EAF5E0A09109
:100430004405B0914505AE5FBA4F12968C918193F9
:1004400080914405909145050196909345058093D0
:100450004405809146059091470501979093470583
:100460008093460587EB95E08E179F0701F7109262
:10047000430510924205E2EDF4E011922AED34E0DA
:100480002E173F07D1F71092DE041092E00410926D
:10049000DF041092E1044090A8054092C4046090EB
:1004A000AA056092DA045090AB055092DB0480916B
:1004B000AC058093DC048091AD058093DD04EEEA09
:1004C000F5E08191DF01AD5DB1098C9386EB95E09C
:1004D0008E179F07B1F7C091D204C093C204C430F5
:1004E00008F4B7C0C73009F4B4C09C2F9F7B9F337A
:1004F00009F4AFC082EA8C0F823008F4AAC08C2FB6
:100500008F7D8F3909F4A5C0C63B09F4A2C0CF3D49
:1005100009F49FC02CEF2C0F233008F49DC028EF66
:100520002C0F233008F498C02FED2C0F233008F443
:1005300093C0C03409F490C02CEB2C0F273008F482
:100540008BC0CC3409F488C02C2F2F7730EA320FBF
:10055000323008F481C0233609F47EC0803809F4B3
:100560007BC02EE72C0F243008F476C0C23A09F481
:1005700073C020E42C0F223008F46EC026EA2C0F42
:10058000223008F46CC020E72C0F253008F467C037
:1005900028E62C0F233008F462C08D59823008F40D
:1005A0005EC08C2F877F805B823008F458C08DE45A
:1005B000890F823008F453C081E38C0F833008F434
:1005C0004EC08CE28C0F823008F449C088E28C0F58
:1005D000823008F444C083E28C0F823008F43FC0BC
:1005E00080E18C0F8230D8F18AE08C0F8630B8F130
:1005F00083E08C0F833098F184EF8C0F823090F180
:1006000080EF8C0F823070F1C23461F180EB8C0F7F
:100610008A3040F184EA8C0F823020F181E98C0F1E
:10062000873000F18BE68C0F8330E0F085E68C0F8D
:100630008230C0F0923BB1F0953BA1F08EE28C0F7E
:10064000823080F0C23E71F0CF3E61F000E010E0F9
:100650000BC004E010E008C001E010E005C003E0BA
:1006600010E002C002E010E01093C6040093C5043D
:100670008091A9058111D093E10410929E04A0906D
:100680008D04A11004C090929E048FEF02C080914F
:10069000440481FBDD24D0F88FEB94E00E94FE0F30
:1006A000C82E882319F0DD2009F4E2C18FEB94E015
:1006B0000E9413108823B1F08FEB94E00E94281061
:1006C0007C010097A9F0BC0180E090E00E94091431
:1006D00020918E0430E0482F50E0241735070CF4A9
:1006E00083C432C0CC20E1F091E0D91219C005C01A
:1006F000CC2061F1F1E0DF1229C08FEB94E00E9481
:100700005310009769F0BC0180E090E00E9409144A
:1007100020918E0430E0482F50E024173507A4F4D0
:100720008FEB94E00E9428107C01892B79F0B701AF
:1007300080E090E00E94091420918E0430E0482F60
:1007400050E02417350714F08F5F01C080E08093DC
:10075000FA048091E104882389F08091E604909165
:10076000E704892B59F06091E50470E080E090E0A7
:1007700027EB34E040E00E94EC1132CEC0904805F7
:10078000D0904905E4E0CE16D104E1F4411028CE22
:100790008091CE05833608F023CEF0E16F9E900164
:1007A0001124652C6294669437E06322622A609279
:1007B000C104E82FF0E0E25BFA4F60828F5F809324
:1007C000CE050ECE0230110561F148F4013011055D
:1007D00009F0C3C0E091D105F091D20519C0E091B4
:1007E000CF05F091D0050330110521F0043011053B
:1007F00031F0B3C08091F20480FDAFC009C0809198
:10080000F20480FDAAC0C73009F048C10C94000072
:10081000309709F4A2C062E874E08FEB94E0099588
:100820009CC08FEB94E00E941B087C010091E604C1
:100830001091E7048017910709F434C1C6010297AB
:10084000039708F02FC1CD3089F0C03109F4C8CD2D
:10085000C13109F0C5CD60C0C43508F077C1C031E1
:1008600051F108F034C1CD3009F0BACD01151105B0
:1008700009F4B6CD8091F2049091F1042091F00436
:1008800036EB3093B7041093B8040093B904209367
:10089000BA049093BB048093BC041092BD041092E0
:1008A000BE04B801660F771F600F711F80E090E0F3
:1008B0000E94670F2BC025E0C216D10409F090CD2D
:1008C000E7EBF4E0119234E0EF3BF307D9F78091C6
:1008D000F4049091F7042091F6043091F5044091CE
:1008E000F1045091F3046091F0047FEE7093B7042B
:1008F0006093B8045093B9044093BA043093BB0496
:100900002093BC049093BD048093BE040E94DD122A
:10091000882309F465CD21C083E01CC0C73508F4E5
:100920002FC1C73509F0A1C1F0908B04FF2009F455
:1009300057CDE12EC0E092EFD92EFC1609F450CD30
:100940008C2F0E942A11FC0180919E04882309F4B7
:100950006EC18AE00E940A1343CDE091CF05F09169
:10096000D005309709F43CCD62E874E08FEB94E059
:10097000099536CD8091DD058111ADCC81E0809364
:10098000DD050E94A10F00914A0510914B052091B1
:100990004C0530914D05DC01CB01801B910BA20B66
:1009A000B30B8C019D01095E134021093109073801
:1009B000134121053105C0F42091B604809148050A
:1009C00090914905213061F4059739F483E090E076
:1009D00090934905809348057ECC0E94A0137BCC60
:1009E000059709F078CCF2CF81379741A105B10581
:1009F00008F471CC8091B604811117C0809148052C
:100A000090914905059711F360E08091D4050E940B
:100A1000D70E80E00E9415158091480590914905F8
:100A20000497D9F60E94CF00F7CF1092B6046091D8
:100A3000F2046B7F6093F2046093980485E190E088
:100A40000E9431098091F20481FD07C01092E704F1
:100A50001092E60480E090E008C08091FC04909140
:100A6000FD049093E7048093E6040E94591533CC6B
:100A70008FEB94E00E9453107C018FEB94E00E9476
:100A80001B08B7010E94091420918E0430E0482F02
:100A900050E0241735070CF409CE56CECE3509F4B4
:100AA000B5CEB6CECD3541F4E016F10609F098CCBE
:100AB00081E00E94151594CCCE3508F069C0C3358D
:100AC00009F0CACE109249051092480589CCC1316F
:100AD000A9F445E0C416D10409F01ECF8091EE04BC
:100AE0009091ED042091EC043091EB044091EA04E4
:100AF0005091E9046091E80472EEF8CEC23409F036
:100B00006FCC85E0C816D10409F006CFF092E70457
:100B1000E092E604C7010E9459158091E604909185
:100B2000E7048092B7049093B8048093B9041092BC
:100B3000BA041092BB041092BC041092BD0410922F
:100B4000BE043092490520924805E0CEC63509F032
:100B5000E5CE8091F50490918B04891B90E79093EA
:100B6000B7041093B8040093B9048093BA041092A8
:100B7000BB041092BC041092BD041092BE04C6CEF9
:100B8000C43509F046C030924905209248053EC060
:100B9000C53909F4A3C008F4C9C0C23B09F455C162
:100BA00008F077C1C63909F085C1C091D504C1509C
:100BB0001091D604CB3149F41093E50410938804C6
:100BC000612F82E190E00E9431098091F7048C1737
:100BD00008F469C1412F6C2F84E894E00E945F09FA
:100BE0008091E6049091E704B092B7049093B80422
:100BF0008093B9041092BA041092BB041092BC0402
:100C00001092BD041092BE040E94DD12D093FB042A
:100C1000E7CBC53509F0E4CBCD2809F0E1CB60E0A6
:100C200087E190E00E94310910928B04D9CB838137
:100C3000928121813081D092B704E092B804009370
:100C4000B9043093BA042093BB049093BC048093FE
:100C5000BD04C093BE040E94DD12882321F088E702
:100C600090E00E941C13CF5F68CEC83509F0B8CB66
:100C700080918B0494E79093B7041093B804009389
:100C8000B9048093BA041FC0C33708F47CC0C337CB
:100C900009F49EC0C53709F0A3CB6091D5046093D9
:100CA000E5046093880482E190E00E94310980911C
:100CB000E6049091E7048092B7049093B80480937F
:100CC000B9041092BA041092BB041092BC041092A2
:100CD000BD041092BE040E94DD1282CB8FEB94E023
:100CE0000E945310BC01C7010E940914C82F109222
:100CF0004E0510924F051092500510925105482F45
:100D00006EE475E084E894E00E949409C81711F03D
:100D100086E020CE6C2F70E020E040E084E894E094
:100D20000E943509882309F45BCB13CEC23709F042
:100D3000ABCFE7EBF4E08FEB94E011928E179F07B7
:100D4000E1F70E94B813C82F8FEF8C0F0E942A1171
:100D5000FC0180919E048111DBCF838192812181EE
:100D6000308142EF4093B7041093B8040093B90464
:100D70003093BA042093BB049093BC048093BD04C9
:100D8000C093BE04A8CFC13709F02ACB9091D504F7
:100D9000EFEFE90F10929E04EA1520F090929E0466
:100DA0008FEF06C0F0E0EE0FFF1FEC5BFB4F808182
:100DB00020919E042111CDCD27E92093B7041093F3
:100DC000B8040093B9049093BA048093BB047DCF18
:100DD0002091D50421110BC08BE98093B7041093A7
:100DE000B8040093B9041092BA0488E0EECF822FC1
:100DF00090E0FC013197E830F105E0F4EC5CFF4F46
:100E00000C943E208091F00416C08091F30413C02E
:100E10008091F10410C08091F5040DC08091F6041A
:100E20000AC08091F70407C08091F40404C0809147
:100E3000F20401C080E09BE99093B7041093B804DA
:100E40000093B9042093BA04C0CFCD2851F50E9475
:100E5000CF13C82F0E942A118C0160E08C2F0E94B2
:100E6000E61390919E04911153CFF8019381228152
:100E7000318140817092B7044093B8043093B90433
:100E80002093BA049093BB04C093BC048093BD0428
:100E900020CFC23DC9F1C53F09F0A2CACD2809F44F
:100EA00064C082E057CDCF3F09F4B0CE89E00E9404
:100EB0000A13ACCECC3909F093CA0E94B813182F8C
:100EC0000E94CF13C82F8091F6048C1708F441CDEF
:100ED0006FEF6C0F8FEF810F0E94E61390919E04CD
:100EE000911137CD9091E6042091E704E5EBE09372
:100EF000B7042093B8049093B9041093BA04C09334
:100F0000BB048093BC04E3CE8FEB94E00E945310AB
:100F1000082FD92E0E94CF13C82F1091D804F09219
:100F20004E05E0924F05D092500500935105482F91
:100F30006EE475E084E894E00E9494098C13E8CE96
:100F4000682F70E0212F40E084E894E00E9435098A
:100F5000C82F84E491E00E94EA106AE070E08C2FD0
:100F60000E942A13C111F5CC38C08FEB94E00E9487
:100F70005310D82EC92E0E94CF13C82F0091D90428
:100F80000E94B813182FF0924E05E0924F05C092C0
:100F90005005D09251054FEF480F6EE475E084E89C
:100FA00094E00E949409682F70E0212F30E02150D6
:100FB00031096217730709F0ABCE4FEF4C0F202FAA
:100FC00084E894E00E94350990E02C2F30E0215015
:100FD00031098217930709F0BCCC8091E604909107
:100FE000E704B092B70469CECC2009F4A0CB21E08D
:100FF000D21609F482CB8FEB94E00E9428107C017A
:1010000096CB80E0DF91CF911F910F91FF90EF90F1
:10101000DF90CF90BF90AF909F908F907F906F9018
:101020005F904F903F902F9008950C94DC200C948B
:10103000DC200C94DC20FC0193899234A9F180EB34
:10104000890F8B3088F184EA890F823068F181E959
:10105000890F873048F180E7890F8F3028F180E5CC
:10106000890F873008F188E4890F8230E8F0292F52
:101070002F7B2D5B2230C0F080E3890F8630A0F0FB
:1010800088E2890F823080F083E2890F823060F03D
:10109000933E51F080E1890F823030F0935F9730BA
:1010A00018F080E090E00895848995899827892731
:1010B000982708951F93CF93DF93EC01FB01E85825
:1010C000FF4F108180919902882309F4ACC08BEE08
:1010D00091E00E94EA106AE070E0812F0E942A13DA
:1010E000112329F1193009F0A0C00E94420F60932A
:1010F0009E0270939F028093A0029093A102809120
:101100009A0290919B02A0919C02B0919D02892B22
:101110008A2B8B2B09F089C00E94420F60939A02A0
:1011200070939B0280939C0290939D027EC080915D
:101130009902882309F479C0CE010E94FE0F88230A
:10114000A9F089E191E00E948E10CE010E941B0857
:10115000BC0180E090E04AE00E94A9108FE091E09D
:101160000E948E10CE010E9453100CC0CE010E942E
:101170001310882371F082E091E00E948E10CE015E
:101180000E942810BC0180E090E04AE00E94A91073
:1011900043C08BEF91E00E94EA1060E170E08B8128
:1011A0000E94EC1080E092E00E94EA10CE010E94C2
:1011B0001B08BC0180E090E04AE00E94A91087E093
:1011C00092E00E94EA102B8D80E1289F900111246B
:1011D0008C8D829586958770822B8A836AE070E079
:1011E0000E94EC108FE092E00E94EA108B8990E060
:1011F00025E0959587952A95E1F78C836AE070E064
:101200000E94EC108DE192E00E94EA108091480566
:10121000909149050E94FA1082E791E0DF91CF9109
:101220001F910C946E1011115DCFDF91CF911F9122
:1012300008950895FC018DE191E091838083DF01A1
:101240005396CF014B961D92A817B907E1F7138E5D
:10125000148E158E168E178E11A210A212A208954A
:1012600008950C94FF1F0C94F71FCF93FC01DB0132
:10127000878190E06817790718F081E0840F1DC01E
:1012800093854917D0F7622FC42F492F50E04C5F48
:101290005F4F4A9F90014B9F300D5A9F300D112494
:1012A00085859685820F931F4C2F50E04C5F5F4FD2
:1012B000840F951F0E9431098C2FCF9108951F93A1
:1012C000CF93DF93FC0181858617E8F0142FC62F9A
:1012D000D0E0FE01EE0FFF1FEC5BFB4F842F90E090
:1012E000918380836996CE010E943309181759F0C3
:1012F00087E291E00E941C13612FCE01DF91CF9114
:101300001F910C943109DF91CF911F910895FC0139
:10131000128E8185681728F4862F90E049960C94E8
:1013200033098FEF828F0895CF92DF92EF92FF9271
:101330001F93CF93DF93FC011285411718F081E0D2
:10134000810F4DC0142FFB01DC01842F90E0EC01D4
:10135000CC0FDD1FC458DC4F208130E03983288357
:10136000EC01CC0FDD1FC255DC4F218130E0398309
:101370002883EC01CC0FDD1FC052DC4F228130E00E
:1013800039832883EC01CC0FDD1FCE5EDB4F238138
:1013900030E0398328831B962C911B9730E02C5F1B
:1013A0003F4F289F7001299FF00C389FF00C1124AB
:1013B0001D968D919C911E97E80EF91E6B0184E09D
:1013C000C80ED11CEB01E61AF70AC7018C0F9D1F4E
:1013D00069910E943109CC15DD05B9F7812FDF91A4
:1013E000CF911F91FF90EF90DF90CF900895FC0177
:1013F00080E090E0238530E0821793073CF4A281DF
:10140000B381A80FB91F1C920196F4CF85E684839F
:10141000158289EC86831782148A0895EF92FF92D1
:101420000F931F93CF93DF9300D000D0CDB7DEB7DB
:101430008C010E94F709F8018285878319821A823C
:101440008AE48B838CE98C83E12CF12CF801828572
:1014500090E0E816F90604F5F8E0EF16F10419F447
:1014600089E0E82EF12C4E2DBE016F5F7F4FC80141
:101470000E9494098C818F5F8C83811103C08B81C2
:101480008F5F8B8320E040E0B701C8010E943509DF
:101490008FEFE81AF80ADACF19821A8282E18B8379
:1014A00087E68C8348E0BE016F5F7F4FC8010E94D2
:1014B000940920E040E068E070E0C8010E9435092E
:1014C00042E06DE1C8010E945F0947E36EE1C80197
:1014D0000E945F0942E060E0C8010E945F0940E0AD
:1014E00069E1C8010E945F0940E06AE1C8010E9409
:1014F0005F09FF24F39444E06F2DC8010E945F0947
:1015000061E06F0D44E6C8010E945F0962E06F0D63
:101510004BE0C8010E945F09E3E0FE0EF9E1FF1213
:10152000EACF45E66BE1C8010E945F0940E06CE14B
:10153000C8010E945F096BE580E090E00E943109DC
:10154000F801648182E190E00E943109F80165812F
:1015500083E190E00E943109F801668184E190E026
:101560000E943109F801648985E190E00E94310907
:10157000F801678187E190E00E943109F8016385F5
:1015800088E190E00E943109C8010E94D20A0F90C0
:101590000F900F900F90DF91CF911F910F91FF90BF
:1015A000EF900895CF93DF93EC010E94F70980E05C
:1015B00090E00E9433098B3519F0CE010E940E0A8B
:1015C00082E190E00E9433098C8383E190E00E94E5
:1015D00033098D8384E190E00E9433098E8385E195
:1015E00090E00E9433098C8B87E190E00E943309E0
:1015F0008F83DF91CF91089525E331E0FC013183A2
:10160000208382819381009711F00C94DC2008954F
:10161000CF93DF93EC010E94FC0ACE01DF91CF91C2
:101620000C94DC202DE331E0FC0121933193CF01B8
:101630000C94FC0ACF93DF93EC010E94120BCE01B5
:10164000DF91CF910C94DC200895CF92DF92EF923E
:10165000FF920F931F93883008F04DC060918D0268
:1016600070918E02082E02C0759567950A94E2F774
:1016700040918B0250918C022091960260FD1BC01C
:1016800030E0082E02C0359527950A94E2F720FF36
:101690001BC001E010E020E030E06801790104C0E7
:1016A000CC0CDD1CEE1CFF1C8A95D2F7D701C601BD
:1016B000842B952B1CC030E0082E02C03595279551
:1016C0000A94E2F720FFE5CF01E010E020E030E0EF
:1016D0006801790104C0CC0CDD1CEE1CFF1C8A954E
:1016E000D2F7D701C60180959095842395239093D6
:1016F0008C0280938B021F910F91FF90EF90DF90EF
:10170000CF9008958F929F92AF92BF92CF92DF9227
:10171000EF92FF921F93CF93DF931092FB041092EE
:101720009E0480918D04811104C08FEF80939E04EC
:1017300002C08091440481FB992790F9909326027E
:10174000881F8827881F8093950227E2E22E22E0D7
:10175000F22E6701C0E0D0E010E0812F0E942A1134
:10176000FC0182819381982789279827F60181932C
:1017700091936F0181E0810F2196C931D10539F034
:10178000C830D10511F482E0810F182FE6CFC09147
:101790008D02D0918E026AE184E894E00E9487096C
:1017A00090E0C817D90709F483C0C0E0D0E0812CCD
:1017B000912C540183946AE184E894E00E948709A3
:1017C00090E00C2E02C0959587950A94E2F7182FA9
:1017D000117080918D0290918E029C010C2E02C09E
:1017E000359527950A94E2F721703327412F50E071
:1017F0002417350709F44AC0B501A401112379F073
:101800000C2E04C0440F551F661F771F0A94D2F791
:10181000482B592B50938E0240938D0210C00C2EF2
:1018200004C0440F551F661F771F0A94D2F74095D6
:1018300050958423952390938E0280938D028C2F54
:101840000E94250B8091960290E00C2E02C0959587
:1018500087950A94E2F7817090912602112319F07E
:1018600081110CC002C0882349F0F70160817181A9
:1018700081E0911180E00E94631308C0F70160814C
:10188000718181E0911180E00E9438132196F2E08D
:10189000EF0EF11CC830D10509F08DCF6AE184E864
:1018A00094E00E94870990E090938E0280938D02CD
:1018B000C7E5D2E011E0E12CF12C83E0A82EB12C99
:1018C000CA80DB80612F84E894E00E94870990E061
:1018D000833091051CF09B838A8302C0BB82AA825D
:1018E0008A819B81C816D906C9F08BEA91E00E94D3
:1018F000EA10C7010E94FA1089EB91E00E94EA10F9
:101900008A819B810E94FA108EEA91E00E948010E9
:1019100065E070E080E090E00E94670FCC80DD80A1
:1019200047012FEF821A920A61E0610F84E894E088
:101930000E94870990E0833091051CF09D838C8381
:1019400002C0BD82AC828C819D81C816D906C9F0C7
:1019500080EB91E00E94EA10C7010E94FA1089EB27
:1019600091E00E94EA108C819D810E94FA108EEA1B
:1019700091E00E94801065E070E080E090E00E94BD
:10198000670FCE80DF8062E0610F84E894E00E9400
:101990008709282F30E03F832E8381508E3F48F403
:1019A000C216D30631F426961D5F1931E1F0740199
:1019B00087CF83EB91E00E94EA10C7010E94FA10E2
:1019C00089EB91E00E94EA108E819F810E94FA10BB
:1019D0008EEA91E00E94801065E070E080E090E087
:1019E0000E94670FE0CFC0919102D09192026DE109
:1019F00084E894E00E94870990E09093920280939B
:101A00009102C817D907A1F086EB91E00E94EA1075
:101A100080919102909192020E94FA108EEA91E0D8
:101A20000E94801065E070E080E090E00E94670F07
:101A3000C0919302D09194026EE184E894E00E94F8
:101A4000870990E09093940280939302C817D90776
:101A5000A1F08BEB91E00E94EA10809193029091AB
:101A600094020E94FA108EEA91E00E94801065E0D4
:101A700070E080E090E00E94670F10929902DF9181
:101A8000CF911F91FF90EF90DF90CF90BF90AF90DC
:101A90009F908F900895CF92DF92EF92FF920F93D5
:101AA0001F93CF93DF936C017A018B01C0E0D0E0EC
:101AB000CE15DF0581F0D8016D918D01D601ED9134
:101AC000FC910190F081E02DC6010995892B11F060
:101AD0002196EECF7E01C701DF91CF911F910F912B
:101AE000FF90EF90DF90CF900895089580E090E010
:101AF0000895FC01538D448D252F30E0842F90E014
:101B0000821B930B541710F0CF96089501970895F8
:101B1000FC01918D828D981761F0828DDF01A80FF5
:101B2000B11D5D968C91928D9F5F9F73928F90E017
:101B300008958FEF9FEF0895FC01918D828D981786
:101B400031F0828DE80FF11D858D90E008958FEFC3
:101B50009FEF0895FC01918D228D892F90E0805C8C
:101B60009F4F821B91098F73992708958FED92E003
:101B70000E94AA0D21E0892B09F420E0822F08950C
:101B8000FC01848DDF01A80FB11DA35ABF4F2C911A
:101B9000848D90E001968F739927848FA689B789E9
:101BA0002C93A089B1898C9180648C93938D848DC2
:101BB000981306C00288F389E02D80818F7D808391
:101BC0000895EF92FF920F931F93CF93DF93EC0151
:101BD00081E0888F9B8D8C8D981305C0E889F989E9
:101BE000808185FD24C0F62E0B8D10E00F5F1F4F06
:101BF0000F731127E02E8C8DE8120CC00FB607FC76
:101C0000FACFE889F989808185FFF5CFCE010E945E
:101C1000C00DF1CF8B8DFE01E80FF11DE35AFF4F90
:101C2000F0820B8FEA89FB898081806207C0EE8990
:101C3000FF896083E889F98980818064808381E0FD
:101C400090E0DF91CF911F910F91FF90EF90089559
:101C5000CF93DF93EC01888D8823C9F0EA89FB8953
:101C6000808185FD05C0A889B9898C9186FD0FC04A
:101C70000FB607FCF5CF808185FFF2CFA889B9891F
:101C80008C9185FFEDCFCE010E94C00DE7CFDF9193
:101C9000CF91089580E090E0892B29F00E94B60D45
:101CA00081110C94000008950E9465211F920F92EB
:101CB0000FB60F9211242F933F934F935F936F931F
:101CC0007F938F939F93AF93BF93EF93FF938FED8A
:101CD00092E00E94C00DFF91EF91BF91AF919F9153
:101CE0008F917F916F915F914F913F912F910F90C5
:101CF0000FBE0F901F9018951F920F920FB60F9264
:101D000011242F938F939F93EF93FF93E091EF0212
:101D1000F091F0028081E091F502F091F60282FDEF
:101D200012C090818091F8028F5F8F732091F90229
:101D3000821751F0E091F802F0E0E152FD4F958FEB
:101D40008093F80201C08081FF91EF919F918F9164
:101D50002F910F900FBE0F901F901895833081F038
:101D600028F4813099F08230A1F008958730A9F0ED
:101D70008830B9F08430D1F4809180008F7D03C029
:101D8000809180008F7780938000089584B58F774D
:101D900002C084B58F7D84BD08958091B0008F7797
:101DA00003C08091B0008F7D8093B00008951F9391
:101DB000CF93DF93282F30E0F901E354FF4F849154
:101DC000F901E755FF4FD491F901EB56FF4FC4914C
:101DD000CC23C1F0162F81110E94AE0EEC2FF0E043
:101DE000EE0FFF1FE55CFE4FA591B4919FB7F894ED
:101DF000111104C08C91D095D82302C0EC91DE2B38
:101E0000DC939FBFDF91CF911F910895CF93DF9314
:101E100090E0FC01E755FF4F2491FC01EB56FF4F8A
:101E20008491882361F190E0880F991FFC01EF52A3
:101E3000FF4FC591D491FC01E55CFE4FA591B49193
:101E4000611109C09FB7F894888120958223888307
:101E5000EC912E230BC0623061F49FB7F894888117
:101E6000322F309583238883EC912E2B2C939FBFA8
:101E700006C08FB7F894E8812E2B28838FBFDF919F
:101E8000CF9108953FB7F8948091DB029091DC02E6
:101E9000A091DD02B091DE0226B5A89B05C02F3FC0
:101EA00019F00196A11DB11D3FBFBA2FA92F982F80
:101EB0008827820F911DA11DB11DBC01CD0142E0FB
:101EC000660F771F881F991F4A95D1F708958F9243
:101ED0009F92AF92BF92CF92DF92EF92FF926B01EF
:101EE0007C010E94420F4B015C01C114D104E1044A
:101EF000F104F1F00E94420FDC01CB01881999092D
:101F0000AA09BB09883E9340A105B10570F321E001
:101F1000C21AD108E108F10888EE880E83E0981E05
:101F2000A11CB11CC114D104E104F10419F7DDCFE7
:101F3000FF90EF90DF90CF90BF90AF909F908F90E9
:101F400008952FB7F8946091D7027091D8028091CC
:101F5000D9029091DA022FBF08951F920F920FB607
:101F60000F9211242F933F938F939F93AF93BF931F
:101F70008091D7029091D802A091D902B091DA0253
:101F80003091D60223E0230F2D3720F40196A11DB6
:101F9000B11D05C026E8230F0296A11DB11D209397
:101FA000D6028093D7029093D802A093D902B0931F
:101FB000DA028091DB029091DC02A091DD02B09107
:101FC000DE020196A11DB11D8093DB029093DC021D
:101FD000A093DD02B093DE02BF91AF919F918F91EC
:101FE0003F912F910F900FBE0F901F9018958EBDAF
:101FF00000000DB407FEFDCF8EB50895FC0193815E
:10200000892F8F7D8059823058F080E3890F82308C
:1020100038F081E0903F31F0913F21F080E0089569
:1020200081E008950895FC019381892F8F7D88595F
:10203000823058F088E2890F823038F081E0983F92
:1020400031F0993F21F080E0089581E008950895EE
:10205000FC0193819B35C1F088E6890F8330A0F0A5
:10206000892F8F798D59823078F088E4890F8230FA
:1020700058F088E2890F823038F088E0890F843088
:1020800018F080E090E0089586E0890F823010F02B
:102090009B3519F48489958902C086899789982788
:1020A000892798270895FC019381292F2F7B205998
:1020B000263070F080E5890F853050F080E1890F7F
:1020C000823030F0935F933018F080E090E0089514
:1020D000868997899827892798270895009769F016
:1020E000FC0101900020E9F73197AF01481B590B23
:1020F000BC018FED92E00C944B0D80E090E00895D0
:10210000CF93DF930E946E10EC0182E791E00E9472
:102110006E108C0F9D1FDF91CF9108950F931F9329
:10212000CF93DF938C01C0E0D0E0F801EC0FFD1FEE
:102130006491662341F08FED92E00E94E10D892BBE
:1021400011F02196F2CFCE01DF91CF911F910F9127
:1021500008958F929F92AF92BF920F931F93CF9348
:10216000DF93CDB7DEB7A1970FB6F894DEBF0FBEF1
:10217000CDBF19A2423008F44AE08E010F5D1F4F17
:10218000842E912CA12CB12CA50194010E940D202C
:10219000E62FB901CA0101501109EA3014F4E05DDB
:1021A00001C0E95CD801EC93232B242B252B61F78C
:1021B000C8010E946E10A1960FB6F894DEBF0FBE44
:1021C000CDBFDF91CF911F910F91BF90AF909F90A6
:1021D0008F9008950C946E10AB01682F4115510536
:1021E00021F48FED92E00C94E10D70E080E090E03E
:1021F0000C94A910CF92DF92EF92FF92CF93DF93CE
:102200006C01990FEE08FF08F7FE19C06DE28FED23
:1022100092E00E94E10DEC0166277727CB016C1953
:102220007D098E099F094AE00E94A9108C0F9D1F0D
:10223000DF91CF91FF90EF90DF90CF9008954AE02B
:10224000C701B601DF91CF91FF90EF90DF90CF9063
:102250000C94A91010929404109295041092960474
:102260001092970410929E0490918E04981720F07B
:1022700090918B04981720F481E080939E0421C0F4
:1022800090E0FC01EE0FFF1FE458FC4F20812093EB
:102290009404FC01EE0FFF1FE255FC4F20812093B8
:1022A0009504FC01EE0FFF1FE052FC4F20812093AC
:1022B0009604880F991FFC01EE5EFB4F808180938E
:1022C000970484E994E008951F93CF93DF93182F28
:1022D000C2E8D4E060E08DA50E94D70E83E00E94A2
:1022E000F70F812F0E94F70F80E00E94F70F182F41
:1022F00061E08DA50E94D70E812FDF91CF911F91B4
:102300000895FF920F931F93CF93DF93F82E062F1C
:10231000142FC2E8D4E060E08DA50E94D70E85E0BE
:102320000E94F70F8F2D0E94F70F802F0E94F70F4A
:10233000812F0E94F70F61E08DA5DF91CF911F9152
:102340000F91FF900C94D70EFF920F931F93CF9392
:10235000DF93C82FF62E072F142F60E08091AF0473
:102360000E94D70E82E00E94F70F8C2F0E94F70F79
:10237000CF2DD02FCE01810F911D8C01C017D10719
:1023800021F089910E94F70FF9CF61E08091AF04AD
:10239000DF91CF911F910F91FF900C94D70E0F9367
:1023A0001F93CF93DF93082F162FC2E8D4E060E08D
:1023B0008DA50E94D70E82E00E94F70F802F0E9409
:1023C000F70F812F0E94F70F61E08DA5DF91CF916C
:1023D0001F910F910C94D70E4F925F926F928F9234
:1023E0009F92AF92BF92CF92DF92FF920F931F9373
:1023F000CF93DF9300D000D0CDB7DEB710929F040B
:102400006093A0047093A1048093A2049093A3040A
:10241000493008F048E04093A4041092AD04A5EAC6
:10242000B4E0F90150E0CF01821B930B84179507AC
:102430001CF481918D93F7CFA12CB12C40904101D8
:1024400050904201609043014E0124E0820E911CA5
:1024500049825A826B82CE0101966C01F82E0D2DB5
:10246000F60111916F01812F0E946411982F9870CD
:1024700083FD02C01F5F05C08C149D0489F710E026
:1024800092E0FFEFAF1ABF0A923029F422E3A216BE
:10249000B104F1F67CC082E3A816B10409F477C058
:1024A0004091A40465EA74E085E0810F0E94A411C4
:1024B0008091AD04813029F48091A40480648093DC
:1024C000A4046091A40484E0810F0E94CF11409184
:1024D000A0045091A1046091A2047091A304809182
:1024E0009F048130B1F44C835B83AB01662777276F
:1024F000942F9C71842F8370E8E09E9F800D11249F
:1025000088608A8365E0569547956A95E1F7498327
:102510000DC0CA0123E0969587952A95E1F7898336
:102520004295440F407E4A831C821B8244E06F2DFB
:10253000702F812F0E94A411115048E068E0812F74
:102540000E948111C12CD12CFFEFCF1ADF0A812FFD
:102550000E94641183FF05C022E3C216D104A1F7D3
:1025600018C082E3C816D104A1F01092A004109202
:10257000A1041092A2041092A3041092A404109239
:102580009F041092AD041092AE0480E003C086E078
:1025900001C087E00F900F900F900F90DF91CF91C7
:1025A0001F910F91FF90DF90CF90BF90AF909F90C1
:1025B0008F906F905F904F900895CF93DF93C0916D
:1025C000B704C295C695C770CF5F81E08093B4040D
:1025D0008093B5046091E50470E080E090E027EB23
:1025E00034E04C2F0E94EC11811102C080E00FC03A
:1025F000D3E06091E50470E080E090E027EB34E008
:102600004C2F0E94EC11882389F3D15091F7DF9170
:10261000CF910895E2E8F4E0A6EEB4E09C91119623
:102620002C913FE635AB26AB97AB80AF11AE12AE27
:1026300013AE14AE0C94DD12CF93DF930E948E1074
:10264000EC0182E791E00E946E108C0F9D1FDF91DC
:10265000CF910895CF93DF930E94EC10EC0182E7B5
:1026600091E00E946E108C0F9D1FDF91CF91089515
:10267000882371F010929E0480918D048C31F8F0C3
:1026800080917A0491E99093B7041092B80409C03C
:102690008091E6049091E70429E92093B704909390
:1026A000B8048093B9047093BA046093BB04109289
:1026B000BC041092BD041092BE040C94DD128FEF86
:1026C00080939E04DFCF882371F010929E04809146
:1026D0008D048C31F8F080917A0490E99093B704DE
:1026E0001092B80409C08091E6049091E70428E9AB
:1026F0002093B7049093B8048093B9047093BA04FC
:102700006093BB041092BC041092BD041092BE04EE
:102710000C94DD128FEF80939E04DFCFCF93C82FF0
:10272000482F60EE8FE00E9481118FE00E946411BB
:10273000982F907E81E09C1301C080E0CF91089596
:10274000E2E8F4E085E090E0909349058093480545
:10275000A6EEB4E08C9111969C9120E525AB96AB4A
:1027600087AB10AE11AE12AE13AE14AE0C94DD12E8
:102770008091C204823721F08C3911F0853B19F425
:102780008091D5040895853F19F48091D704089568
:10279000823F19F48091D904089580E008958091D2
:1027A000C2048C3911F0853B19F48091D604089548
:1027B000823B11F0823D19F48091D7040895853F42
:1027C00019F48091D804089580E0089510929E0431
:1027D00090918B048917C8F420918F046217A8F494
:1027E00030E02C5F3F4F829FA001839F500D11244A
:1027F0008091910490919204840F951F70E06C5F1A
:102800007F4F860F971F0C9433098FEF80939E04A0
:102810000895EF92FF920F931F93CF93DF939C0144
:10282000472F5527822FC32FDD271C2F00918B04A4
:10283000ACE7B3E0E0EEF3E090E033277727091749
:10284000F9F0111102C0882369F0ED90FC90119706
:10285000CE15DF0589F4D296ED90FC90D3972E1516
:102860003F0551F4E080F1804E155F0529F4E2A8A0
:10287000F3A86E157F0549F09F5F12963296DFCF61
:1028800090918E0481E0890F01C0892FDF91CF9153
:102890001F910F91FF90EF900895FF920F931F9358
:1028A000CF93DF93182FF62EC72FD42F60E080919F
:1028B000AF040E94D70E83E00E94F70F812F0E9481
:1028C000F70F0F2D1C2FC0E0CD1751F0C83041F08D
:1028D00080E00E94F70FF80181938F01CF5FF4CF62
:1028E00061E08091AF04DF91CF911F910F91FF9034
:1028F0000C94D70E0F931F93CF93DF9300D000D08B
:10290000CDB7DEB7182F10929F041092A00410923A
:10291000A1041092A2041092A30444E0BE016F5FD0
:102920007F4F0E944D142A813981822F90E065E00B
:10293000959587956A95E1F748E0349F800D911D44
:102940001124092E000CAA0BBB0B8093A0049093BA
:10295000A104A093A204B093A30423FF29C032E0F2
:10296000880F991FAA1FBB1F3A95D1F72370820FBA
:10297000911DA11DB11DBA2FA92F982F88272B813A
:10298000820F911DA11DB11DBA2FA92F982F882745
:102990002C81820F911DA11DB11D8093A0049093E5
:1029A000A104A093A204B093A30481E080939F04A8
:1029B0008FEF810F0E946411082F84E0810F0E9425
:1029C000641103FF04C091E09093AD0402C0109223
:1029D000AD04482F4F704093A40465EA74E085E08D
:1029E000810F0E944D140F900F900F900F90DF9168
:1029F000CF911F910F9108951F93CF93DF93C2E85A
:102A0000D4E060E08DA50E94D70E80EA0E94F70F07
:102A100080E00E94F70F182F61E08DA50E94D70E6D
:102A2000812FDF91CF911F910895CF93DF93CDB781
:102A3000DEB728970FB6F894DEBF0FBECDBF109259
:102A4000CE058093F90484E090E09093490580934B
:102A5000480582E08093B40483E08093B5046091DC
:102A6000E50470E080E090E0FE013196AE01475F42
:102A70005F4F9F011192E417F507E1F741E04093A2
:102A8000AD0440E00E94EC111092AD040E94A10F31
:102A900060934A0570934B0580934C0590934D05C8
:102AA00028960FB6F894DEBF0FBECDBFDF91CF9151
:102AB0000895CF93DF93C2E8D4E09F838887692F7E
:102AC00083E190E00E943109688584E190E0DF9124
:102AD000CF910C943109789484B5826084BD84B51B
:102AE000816084BD85B5826085BD85B5816085BD09
:102AF00080916E00816080936E00109281008091C1
:102B00008100826080938100809181008160809348
:102B10008100809180008160809380008091B1006D
:102B200084608093B1008091B00081608093B00098
:102B300080917A00846080937A0080917A0082602C
:102B400080937A0080917A00816080937A008091EE
:102B50007A00806880937A001092C1003E9A61E00A
:102B600080E00E94060F61E081E00E94060F0E9453
:102B7000A10F6838734181059105E8F460E080E0B9
:102B80000E94D70E60E081E00E94D70E64E670E0FC
:102B900080E090E00E94670F61E080E00E94D70E25
:102BA00061E081E00E94D70E64EF71E080E090E088
:102BB0000E94670FDCCF61E080E00E94D70E61E0E9
:102BC00081E00E94D70E3E98469AA8EEB4E0FD013F
:102BD000119234E0E03FF307D9F7ECE4F1E08191A2
:102BE0008D9341E0E435F407D1F78BE58093F10450
:102BF0008DE08093F00481E38093F30482E080937E
:102C0000F4048091F2048E7F82608093F20489EC58
:102C100090E0A0E0B0E08093FC049093FD04A093CA
:102C2000FE04B093FF04D1E036991BC00E94A10FAF
:102C30004B015C01C1E00E94A10FDC01CB018819AE
:102C40009909AA09BB09883E9340A105B10508F07E
:102C50004DC6CC2349F3C6B1C6FBCC27C0F9CD275E
:102C6000EACF61E080E00E94D70E61E081E00E943F
:102C7000D70E8AE598E09093D0058093CF058AE03F
:102C80008093AF0461E00E94060F61E08091AF0481
:102C90000E94D70EC4E1D0E0EFE9AE2EE0E0BE2EF8
:102CA000F3EBEF2EF0E0FF2ECFB6F8948091A20266
:102CB000811126C0F5018491F7012491E82FF0E0FD
:102CC000EE0FFF1FEF52FF4FA591B4919C91822F01
:102CD000892321F461E08AE00E94D70E61E08AE056
:102CE0000E94060F8CB580618CBD8CB580648CBD54
:102CF00061E08DE00E94060F61E08BE00E94060F0C
:102D00008091A2028F5F8093A202CFBE60E080918B
:102D1000AF040E94D70E80EC0E94F70F61E0809113
:102D2000AF040E94D70E6AE070E080E090E00E945D
:102D3000670F80E80E948E13882381F06AE070E0BC
:102D400080E090E00E94670F6EE170E080E090E02C
:102D50000E94670F219709F0A7CF4BC06AE070E08F
:102D600080E090E00E94670F61E08AE20E94CF114C
:102D700061EB89E20E94CF1165E088E20E94CF11E9
:102D80006AE070E080E090E00E94670F10E360E08E
:102D9000812F0E94CF1160E080E1810F0E94CF114E
:102DA00060E080E2810F0E94CF111F5F1E3379F730
:102DB00060E080E60E94CF1160E080E70E94CF11C2
:102DC00063E08BE20E94CF1144E064E680E60E945B
:102DD000811140E060E680E70E94811180E00E945E
:102DE0008E138111ABCF6AE070E080E090E00E942A
:102DF000670F8FEF8093DC0562E00E94060F109250
:102E00009902E091EF02F091F00282E08083E0917C
:102E1000EB02F091EC021082E091ED02F091EE02F3
:102E200080E180831092F702E091F302F091F402C6
:102E300086E08083E091F102F091F202808180616E
:102E40008083E091F102F091F202808188608083BA
:102E5000E091F102F091F202808180688083E0913C
:102E6000F102F091F20280818F7D8083809199023E
:102E70008823F1F0C5E0D0E068EE73E080E090E0F8
:102E80000E94670F85E591E00E94EA102197A1F763
:102E900084E791E00E94801087E591E00E94EA10AB
:102EA00081E090E00E94FA1082E791E00E946E10AB
:102EB000F89489E0E0E0F0E0809357003491E3E09B
:102EC000F0E0809357002491E2E0F0E08093570017
:102ED0009491E1E0F0E08093570084917894C1E010
:102EE0003F3F09F4C0E02C3509F0CE5FE2E0E90F86
:102EF000E23020F0CC5F8F3F19F406C08F3F11F015
:102F0000C85F02C0CC23A1F1809199028823A1F06F
:102F100081EE90E00E948E106AE070E08C2F0E949B
:102F2000EC1085E791E00E94801068EE73E080E08D
:102F300090E00E94670FECCF61E080E00E94060FF6
:102F400061E081E00E94060FC1E08D2D8C27817029
:102F5000D82E682F80E00E94D70E6D2D81E00E9450
:102F6000D70E64EF71E080E090E00E94670FEDCF34
:102F70006AE184E894E00E94870990E090938E02D1
:102F800080938D020E94820B80919902882321F008
:102F90008BED90E00E941C130E94420F6093CE02C2
:102FA0007093CF028093D0029093D102412C512C88
:102FB0003201439463E0262E312C0E94420F60932D
:102FC0009E0270939F028093A0029093A1020091B1
:102FD000D2021091D3022091D4023091D5026B011C
:102FE0007C01C01AD10AE20AF30A9701860105366C
:102FF00011052105310548F40E94CF008091FB04A2
:103000008823A9F10E94820B32C06093D202709390
:10301000D3028093D4029093D502C0E0D1E00E9405
:10302000FC14837001F187C48091B0048093BE05C5
:103030008091B1048093BF058091B2048093C00554
:103040008091B3048093C1054093BC058091AD0489
:1030500081119CC41092BD05809142059091430559
:10306000892B09F496C4CF5FC23031F2D8CFC0901B
:103070009A02D0909B02E0909C02F0909D02C114B5
:10308000D104E104F104D1F12091E6043091E70488
:1030900080909E0290909F02A090A002B090A1020A
:1030A0008C189D08AE08BF08A0E1B7E20E942F204F
:1030B000681579058A059B0508F52091A30294E817
:1030C000C90E93E0D91EE11CF11CC0929A02D09265
:1030D0009B02E0929C02F0929D0281E0820F80931D
:1030E000A302893008F4A2C41092A30210929A029B
:1030F00010929B0210929C0210929D0280914805B2
:1031000090914905039759F4369909C00E94A10F7F
:10311000613177428105910510F00E94A0138091E2
:10312000CE029091CF02A091D002B091D10200972F
:10313000A105B10539F12091E6043091E704C09072
:103140009E02D0909F02E090A002F090A102C81AC7
:10315000D90AEA0AFB0AA0E1B7E20E942F20C616AC
:10316000D706E806F90618F41092CD020BC081E0EC
:103170008093CD021092CE021092CF021092D00214
:103180001092D1029090CD02911008C0DD24D3940A
:10319000CAE0CC2ED7E38D2E912C13C180919E02D4
:1031A00090919F02A091A002B091A1024091C9020A
:1031B0005091CA026091CB027091CC02841B950B96
:1031C000A60BB70B85389340A105B105F8F2C0E016
:1031D000D0E088248394809199028823F9F082E8D2
:1031E00091E00E94EA10CE010E94FA1084E991E079
:1031F0000E94EA1062E070E0FE01EA56FD4F808115
:103200000E94EC1080E891E00E94EA1062E070E019
:10321000FE01EA53FD4F80810E942A13809195029E
:1032200081110BC0209749F0809197028093C702CB
:10323000809198028093C802A3C0CE018A539D4F0B
:103240007C01FC012081CE018A569D4F6C01FC015E
:103250008081281709F48FC000E010E090E030E092
:103260005C01002E02C0B594A7940A94E2F7A9016C
:10327000002E02C0559547950A94E2F74A255B2532
:1032800040FF73C0202FF8E0CF9F200D1124C22FE4
:10329000822F0E94250B4A2D4170A42E80918D0211
:1032A00090918E02002E02C0959587950A94E2F7C0
:1032B00080FDA82480919902D0E08823C9F087E995
:1032C00091E00E94EA10FE01EE0FFF1FE95DFD4F45
:1032D0006081718180E090E04AE00E94A91080E85E
:1032E00091E00E94EA106AE070E08A2D0E942A13A1
:1032F00090912602CC0FDD1FC95DDD4F6881798179
:1033000081E0AA2029F0911180E00E94631304C09B
:10331000911180E00E943813F601808190E0002E28
:1033200002C0959587950A94E2F780FF0DC0D301FE
:10333000C20104C0880F991FAA1FBB1F0A95D2F7AC
:10334000F7012081822B0DC0D301C20104C0880F78
:10335000991FAA1FBB1F0A95D2F78095F70190818C
:1033600089238083C3E0D0E006C00F5F1F4F083081
:10337000110509F075CF2196C330D1050CF42BCF80
:103380000E94420F6093C9027093CA028093CB02DD
:103390009093CC02E6ECF2E0A6E9B2E089EC92E090
:1033A00020E041913D914313292D8E179F07C9F7C6
:1033B0002093CD02EBCE1092B502CF3379F5D092A7
:1033C000A4028FED92E00E94AA0D181619060CF0C7
:1033D0008AC28FED92E00E94880DC82FD091990289
:1033E000DD2329F0682F8FED92E00E94E10DCF33AD
:1033F00011F0C734B1F464E771E086EB92E00E940B
:103400006A218091B50290E0E5EAF2E09F01255A39
:103410003240281739077CF61192F8CF1092A40297
:10342000D0CFCB3409F096C1DD2321F085EA91E0BD
:103430000E948010F090B50280919902882379F162
:103440008EE991E00E94EA106AE070E08F2D0E9400
:103450002A1306EB12E08091B50290E09801265BFA
:10346000324028173907DCF4E8016AE070E088810F
:103470000E94EC1080E891E00E94EA1060E170E0A8
:10348000F80181918F010E94EC1080E891E00E9488
:10349000EA1062E070E088810E942A13DCCFC091BC
:1034A000B602C33509F0D8C080910001882309F421
:1034B000D0C0C7E5D2E0BB24B39400E010E06B2D90
:1034C00084E894E00E94870990E0833091051CF025
:1034D0009B838A8302C03B822A828BEA91E00E940E
:1034E000EA10C8010E94FA1089EB91E00E94EA10EC
:1034F0008A819B810E94FA108EEA91E00E948010DE
:1035000065E070E080E090E00E94670F7801FFEFD7
:10351000EF1AFF0A61E06B0D84E894E00E948709CE
:1035200090E0833091051CF09D838C8302C03D8226
:103530002C8280EB91E00E94EA10C8010E94FA10F0
:1035400089EB91E00E94EA108C819D810E94FA1023
:103550008EEA91E00E94801065E070E080E090E0EB
:103560000E94670F62E06B0D84E894E00E94870977
:103570009FEF980F9E3F20F490E09F838E8304C0BE
:103580002FEF30E03F832E8383EB91E00E94EA101F
:10359000C8010E94FA1089EB91E00E94EA108E8126
:1035A0009F810E94FA108EEA91E00E94801065E0EF
:1035B00070E080E090E00E94670F33E0B30E269643
:1035C00049E1B41611F087017ACF80919102909170
:1035D0009202009719F08F3F910531F482E090E05C
:1035E0009093920280939102809193029091940221
:1035F000009719F08F3F910521F4909294028092E8
:10360000930286EB91E00E94EA10809191029091E2
:1036100092020E94FA108EEA91E00E94801065E00A
:1036200070E080E090E00E94670F8BEB91E00E94D9
:10363000EA1080919302909194020E94FA108EEA0F
:1036400091E00E94801065E070E080E090E00E94D0
:10365000670F10920001B5CEC053C83008F0B1CE4C
:10366000E7EBF2E040E050E02F2D30E0CF01865B49
:103670009240821793078CF4619180ED860F8A3017
:10368000A8F7C49EC001C59E900D1124462F50E09E
:1036900040535109480F591FE9CFD0E0BE016F5F79
:1036A0007F4F7B01EE0CFF1CE60EF71E8701000F1B
:1036B000111FF801E95AFD4F808191814817590780
:1036C00009F47FCE51834083862F880F680FBB2477
:1036D000B394B60E8091F704861720F084E894E046
:1036E0000E945F09809199028823C1F080EC91E0EB
:1036F0000E94EA10CE018E0D9F1D0E94FA1080E8F4
:1037000091E00E94EA10F801E95AFD4F8081918111
:103710000E94FA108AEC91E00E94EA10F801E95A3E
:10372000FD4F80819091E6042091E70437E93093C2
:10373000B7042093B8049093B904B092BA0480936C
:10374000BB041092BC041092BD041092BE040E94EF
:10375000DD1237CEE091B502C33409F096C0E430F3
:1037600009F090C0DD2321F088ED91E00E948010E7
:1037700080919902811108C0E091B502F0E0EB550B
:10378000FD4F20E030E046C082EF90E00E948E10B6
:103790006AE070E08091B5020E942A1305EA12E007
:1037A000E80160E170E0F80181918F010E94EC1066
:1037B00080E891E00E94EA1062E070E088810E9457
:1037C0002A13F2E0093A1F0759F7D6CF672F70E0A6
:1037D00075956795762FDC0153E0B595A7955A95B9
:1037E000E1F7AC0147705527AA56BD4F830172011E
:1037F00004C0EE0CFF1C001F111F4A95D2F760FF9A
:1038000016C04C91E42AEC920196C150F9F62A5F59
:103810003F4F708342E0E53AF40769F0829190E00F
:1038200095958795782F8083C901C6E0CFCFE09426
:103830004C91E422E8CFC6E9D2E006EC12E0F12C8C
:10384000F80181918F0198819813D092CD028091D7
:103850009902882391F08DED91E00E94EA106AE0D0
:1038600070E08F2D0E94EC1080E891E00E94EA1039
:1038700062E070E088810E942A13F3942196F3E0BD
:10388000FF12DECF1092B5029CCDEF3008F099CD3B
:103890008091A402882329F0F0E0EB55FD4FC0830E
:1038A0001CC08C2F0C2E000C990B9F93CF9386EB92
:1038B00092E09F938F9326EEE22E21E0F22EFF926C
:1038C000EF929F938F930E9471218DB79EB70896B8
:1038D0000FB6F8949EBF0FBE8DBF8091B5028F5F6B
:1038E0008093B5026ECD0E944A0E67CBCC2309F4BB
:1038F0009BC984E894E00E940E0A1092B60460917D
:10390000F2046B7F6093F2046093980485E190E089
:103910000E9431096091F2046093980485E190E07F
:103920000E94310960E081E00E94D70E60E080E0F3
:103930000E94D70EFFCF0E94FC14C11108C080FF67
:1039400092CB81E60E947A1440E061E007C081FFDB
:103950008ACB81E70E947A1440E062E08CE20E9408
:1039600081114091A404E2E8F4E09F012258344020
:1039700031968091A40490E0281739070CF054CBBD
:1039800082A1DF01A15CBE4F8C93EFCFD093BD0528
:1039900063CBEE24E394F12CF0924305E0924205D0
:1039A0008091400590914105CC9724F010924105FB
:1039B00010924005ECEBF5E08091400590914105B7
:1039C0002191DC01AE5FBA4F12962C930196909331
:1039D00041058093400580914605909147050196E9
:1039E000909347058093460525E0EB3CF20721F7CD
:1039F000CD97BCF080914405909145050F968C338E
:103A000091052CF4909345058093440504C01092D1
:103A10004505109244058CE390E090934705809310
:103A2000460510924305109242051DCB022F10E06F
:103A3000F80133E0F595E7953A95E1F7EA56FD4F41
:103A4000808190E0322F377002C0959587953A9526
:103A5000E2F7E82FE170FE2E80918D0290918E02A8
:103A600002C0959587952A95E2F780FF02C081E014
:103A7000F82680919902E801CC0FDD1F8823F1F030
:103A800087E791E00E94EA10C8010E94FA108CE7D3
:103A900091E00E94EA10FE01E95DFD4F60817181B5
:103AA00080E090E04AE00E94A9108EE791E00E9439
:103AB000EA106AE070E08F2D0E942A13909126028E
:103AC000C95DDD4F6881798181E0FF2029F0911186
:103AD00080E00E94631312CB911180E00E943813A2
:103AE0000DCB82E894E00C94120B6F927F928F9230
:103AF0009F92AF92BF92CF92DF92EF92FF920F937D
:103B00001F93CF93DF93CDB7DEB7C654D1090FB65D
:103B1000F894DEBF0FBECDBF1092E2021092E10218
:103B200088EE93E0A0E0B0E08093E3029093E4029B
:103B3000A093E502B093E6028BE091E09093E0025F
:103B40008093DF0285EC90E09093EC028093EB028F
:103B500084EC90E09093EE028093ED0280EC90E094
:103B60009093F0028093EF0281EC90E09093F20248
:103B70008093F10282EC90E09093F4028093F30240
:103B800086EC90E09093F6028093F5021092F80292
:103B90001092F9021092FA021092FB028DE391E06A
:103BA000909383048093820485E391E0909385044D
:103BB000809384048FEB94E00E941A098DE291E0D7
:103BC0009093E4048093E304E8EEF4E080EF94E063
:103BD00020E321938E179F07E1F785E291E0909310
:103BE0000305809302051092F8041092CE0527E198
:103BF000FE013196AFE9B4E001900D922A95E1F70C
:103C00009A83898321961FAE1EAE219723961FAEFD
:103C10001EAE239725961FAE1EAE259727961FAE84
:103C20001EAE2797DE011396E4E0F5E08D918193B7
:103C300045E0E034F407D1F71092410510924005B9
:103C400010924305109242051092450510924405CA
:103C5000109247051092460585E391E09A83898387
:103C60008FE18A8789E18B8781E08C878D8788E364
:103C7000888B8AE390E09F878E8781E090E00E94A6
:103C800044209C838B83CE0101960E94F709CE01CC
:103C900001960E94D20A24E4E22E24E0F22E10E0E3
:103CA000612FCE0101960E94870990E0F701819370
:103CB00091937F011F5F1F3199F7EB847884CC8447
:103CC000D12CF4E0CF0ED11C8CE7882E83E0982E07
:103CD00090EEA92E93E0B92E0E851F85F12C662457
:103CE0006394198A1A8A1B8A1C8A1B8EEF1410F09F
:103CF0007F1410F46B8E13C0C8010E943309898BA6
:103D0000C80101960E9433098A8BC80102960E945D
:103D100033098B8BC80103960E9433098C8B398938
:103D2000832F90E0F401819391934F012A89822F90
:103D300090E091AB80AB9B89492F50E0F501419316
:103D400051935F018C89482F50E051AB40ABF39405
:103D50000C0D1D1DF9E1FF12C4CF4B815C81509306
:103D60008704409386044D81409388044E8140939C
:103D700089044F8140938A04488540938B04498588
:103D800040938C044A8540938D04E0928E044C85C8
:103D900040938F044D85409390044E855F855093EA
:103DA000920440939104488940939304309394047F
:103DB0002093950490939604809397048D89809323
:103DC00098048E899F8990939A0480939904888D92
:103DD00080939B04898D80939C048A8D80939D049D
:103DE0008B8D80939E04CE0101960E94FC0A8DE289
:103DF00091E09A838983DE011696CE010E96FD012D
:103E000020E32193E817F907E1F78B818093E5041C
:103E10008C819D819093E7048093E604E8EEF4E0C2
:103E20008D91819344E0E03FF407D1F78E85809334
:103E3000F0048F858093F10488898093F204898946
:103E40008093F3048A898093F40489E18093F504D4
:103E50008FE18093F70481E08093F604CE01019610
:103E60000E941A098B818093C1048C818093C204C3
:103E70008D818093C3048E818093C4048F81988543
:103E80009093C6048093C50489859A859093C8044D
:103E90008093C7048B859C859093CA048093C90442
:103EA0008D859E859093CC048093CB048F859889D3
:103EB0009093CE048093CD0489899A899093D004FD
:103EC0008093CF048B898093D104DE015496E2ED78
:103ED000F4E08D91819384E0EA3DF807D1F78C8D71
:103EE0008093DA048D8D8093DB048E8D8093DC04C7
:103EF0008F8D8093DD0488A18093DE0489A19AA12F
:103F00009093E0048093DF048BA18093E1048CA163
:103F10008093E2048091F80481608093F804109209
:103F2000F9040FEF0093D4050093D50511E0109329
:103F3000D6051092D7050E94A10F6093D805709303
:103F4000D9058093DA059093DB051092D005109285
:103F5000CF051092DF051092DE051092FA0410933F
:103F6000FB040093DC051093DD0589EC90E0A0E0F4
:103F7000B0E08093FC049093FD04A093FE04B09302
:103F8000FF0484E894E00E94D20A80918904909111
:103F90008A0498278927982790939A0480939904F4
:103FA0009093E7048093E604809188048093E5046D
:103FB00082E08093F20483E090E09093490580933F
:103FC0004805CA5BDF4F0FB6F894DEBF0FBECDBF0A
:103FD000DF91CF911F910F91FF90EF90DF90CF90E5
:103FE000BF90AF909F908F907F906F900895F999B8
:103FF000FECF92BD81BDF89A992780B50895262FEE
:10400000F999FECF1FBA92BD81BD20BD0FB6F894BD
:10401000FA9AF99A0FBE01960895A1E21A2EAA1BE8
:10402000BB1BFD010DC0AA1FBB1FEE1FFF1FA21768
:10403000B307E407F50720F0A21BB30BE40BF50B65
:10404000661F771F881F991F1A9469F760957095EE
:10405000809590959B01AC01BD01CF010895A29F71
:10406000B001B39FC001A39F700D811D1124911D4C
:10407000B29F700D811D1124911D0895EE0FFF1F39
:104080000590F491E02D09940F931F93CF93DF9344
:104090008230910510F482E090E0E091E605F09125
:1040A000E70520E030E0A0E0B0E0309719F1408172
:1040B00051810281138148175907C8F08417950769
:1040C00069F4109731F012960C93129713961C9383
:1040D00027C00093E6051093E70522C0211531059E
:1040E00019F04217530718F49A01BD01EF01DF01DF
:1040F000F801DBCF21153105F9F0281B390B2430ED
:10410000310580F48A819B816115710521F0FB01E5
:104110009383828304C09093E7058093E605FE01B4
:10412000329644C0FE01E20FF31F81939193225017
:104130003109398328833AC02091E4053091E5059F
:10414000232B41F420910301309104013093E505C4
:104150002093E405209101013091020121153105E0
:1041600041F42DB73EB74091050150910601241B43
:10417000350BE091E405F091E505E217F307A0F4B3
:104180002E1B3F0B2817390778F0AC014E5F5F4FAD
:104190002417350748F04E0F5F1F5093E5054093F5
:1041A000E4058193919302C0E0E0F0E0CF01DF915C
:1041B000CF911F910F910895CF93DF93009709F44A
:1041C00081C0FC01329713821282A091E605B09162
:1041D000E705109781F420813181820F931F209190
:1041E000E4053091E5052817390751F5F093E50509
:1041F000E093E40567C0ED0120E030E0CE17DF0773
:1042000040F44A815B819E0141155105F1F0EA01BC
:10421000F5CFD383C28340815181840F951FC81786
:10422000D90759F488819981840F951F029691834B
:1042300080838A819B81938382832115310529F4B0
:10424000F093E705E093E6053DC0E901FB83EA83CF
:1042500049915991C40FD51FEC17FD0761F4808176
:104260009181840F951F0296E90199838883828149
:1042700093819B838A83E0E0F0E012968D919C917C
:104280001397009719F0FD01DC01F7CF8D919C91F8
:1042900011979D012E5F3F4F820F931F2091E405E0
:1042A0003091E5052817390769F4309729F4109201
:1042B000E7051092E60502C013821282B093E5056D
:1042C000A093E405DF91CF91089581E090E0F89408
:1042D0000C945B24FB01DC0101900D920020E1F7BE
:1042E0000895AEE0B0E0E7E7F1E20C9432240D89E6
:1042F0001E8986E08C831A8309838FEF9FE79E8354
:104300008D83AE01475E5F4F6F89788DCE01019638
:104310000E949321EF81F885E00FF11F10822E9605
:10432000E4E00C944E24ABE0B0E0E9E9F1E20C9457
:1043300024246C017B018A01FC011782168283818F
:1043400081FFCCC1CE0101963C01F6019381F701BA
:1043500093FD859193FF81917F01882309F4BAC170
:10436000853239F493FD859193FF81917F018532E8
:1043700029F4B60190E00E948A23E7CF912C212CEA
:10438000312CFFE1F315D8F08B3279F038F480321C
:1043900079F08332A1F4232D20611DC08D3261F0AC
:1043A000803369F4232D216016C0832D8260382E5E
:1043B000E32DE4603E2E2AC0F32DF8601DC037FCCB
:1043C0002DC020ED280F2A3040F08E32B9F436FC93
:1043D00081C1232D2064322E19C036FE06C08AE02A
:1043E000989E200D1124922E11C0EAE02E9E200DE1
:1043F0001124222EF32DF0623F2E08C08C3621F4BA
:10440000832D8068382E02C0883641F4F70193FD71
:10441000859193FF81917F018111B3CF982F9F7D6B
:104420009554933028F40C5F1F4F9FE399830DC080
:10443000833631F0833771F0833509F059C021C0DC
:10444000F801808189830E5F1F4F88248394912C0B
:10445000530113C02801F2E04F0E511CF801A08057
:10446000B18036FE03C0692D70E002C06FEF7FEFB0
:10447000C5010E947F234C018201F32DFF773F2E5F
:1044800016C0280122E0420E511CF801A080B18024
:1044900036FE03C0692D70E002C06FEF7FEFC501EB
:1044A0000E9474234C01F32DF0683F2E820133FCEF
:1044B0001BC0822D90E088169906B0F4B60180E208
:1044C00090E00E948A232A94F4CFF50137FC85916D
:1044D00037FE81915F01B60190E00E948A2321108E
:1044E0002A9421E0821A91088114910471F7E8C09E
:1044F000843611F0893641F5F80137FE07C0608136
:104500007181828193810C5F1F4F08C0608171812E
:10451000072E000C880B990B0E5F1F4FF32DFF76B3
:104520003F2E97FF09C090958095709561957F4FBC
:104530008F4F9F4FF0683F2E2AE030E0A3010E948A
:10454000C623882E861845C0853731F4232D2F7E4B
:10455000B22E2AE030E025C0932D997FB92E8F36F8
:10456000C1F018F4883579F0B5C0803719F0883774
:1045700021F0B0C0E92FE061BE2EB4FE0DC0FB2DCE
:10458000F460BF2E09C034FE0AC0292F2660B22E67
:1045900006C028E030E005C020E130E002C020E1A4
:1045A00032E0F801B7FE07C060817181828193819A
:1045B0000C5F1F4F06C06081718180E090E00E5F4C
:1045C0001F4FA3010E94C623882E8618FB2DFF775C
:1045D0003F2E36FE0DC0232D2E7FA22E891458F4B7
:1045E00034FE0BC032FC09C0832D8E7EA82E05C080
:1045F000B82CA32C03C0B82C01C0B92CA4FE0FC04A
:10460000FE01E80DF11D8081803321F49A2D997E01
:10461000A92E09C0A2FE06C0B394B39404C08A2D8B
:10462000867809F0B394A3FC11C0A0FE06C0B214B2
:1046300088F4280C922C9B180EC0B21460F4B601BA
:1046400080E290E00E948A23B394F7CFB21418F46A
:104650002B1802C0982C212CA4FE10C0B60180E3B8
:1046600090E00E948A23A2FE17C0A1FC03C088E745
:1046700090E002C088E590E0B6010CC08A2D8678F3
:1046800059F0A1FE02C08BE201C080E2A7FC8DE2DE
:10469000B60190E00E948A23891438F4B60180E3C1
:1046A00090E00E948A239A94F7CF8A94F301E80D50
:1046B000F11D8081B60190E00E948A238110F5CF20
:1046C000222009F442CEB60180E290E00E948A23C3
:1046D0002A94F6CFF6018681978102C08FEF9FEF73
:1046E0002B96E2E10C944024FC010590615070404F
:1046F0000110D8F7809590958E0F9F1F0895FC01AB
:104700006150704001900110D8F7809590958E0F00
:104710009F1F08950F931F93CF93DF93FB01238176
:1047200021FD03C08FEF9FEF2CC022FF16C04681F2
:104730005781248135814217530744F4A081B18108
:104740009D012F5F3F4F318320838C9326813781DA
:104750002F5F3F4F3783268314C08B01EC01FB0191
:104760000084F185E02D0995892BE1F6D801169694
:104770008D919C911797019617969C938E931697FF
:10478000CE01DF91CF911F910F910895FA01AA27D1
:10479000283051F1203181F1E8946F936E7F6E5F84
:1047A0007F4F8F4F9F4FAF4FB1E03ED0B4E03CD032
:1047B000670F781F891F9A1FA11D680F791F8A1F15
:1047C000911DA11D6A0F711D811D911DA11D20D07C
:1047D00009F468943F912AE0269F11243019305D36
:1047E0003193DEF6CF010895462F4770405D419327
:1047F000B3E00FD0C9F7F6CF462F4F70405D4A3374
:1048000018F0495D31FD4052419302D0A9F7EACF3B
:10481000B4E0A6959795879577956795BA95C9F76A
:1048200000976105710508959B01AC010A2E06945D
:104830005795479537952795BA95C9F7620F731F16
:10484000841F951FA01D08952F923F924F925F9253
:104850006F927F928F929F92AF92BF92CF92DF9290
:10486000EF92FF920F931F93CF93DF93CDB7DEB7F5
:10487000CA1BDB0B0FB6F894DEBF0FBECDBF099489
:104880002A88398848885F846E847D848C849B84E0
:10489000AA84B984C884DF80EE80FD800C811B81EE
:1048A000AA81B981CE0FD11D0FB6F894DEBF0FBE1D
:1048B000CDBFED01089510E0C4EAD0E004C0FE01D0
:1048C0000E943E202196C53AD107C9F7F894FFCF40
:1048D000010000E805800000000000E10D4B0D79AB
:1048E0000D280EAA0D880D9C0D0000000019091559
:1048F0000800000000240B19080000000030091710
:104900000800000000FC0A080B00000000120B1A4F
:104910000B304050726573705661720041524455BD
:104920005F47424D002A004172647543414E204763
:10493000424D205374726F6D2056657273696F6EAD
:1049400020000D0A002100506F7274002800293ADF
:104950002000757064617465642070696E737461A1
:1049600074655B005D3A004576656E743A00456D8E
:104970007066616E675072656673003C42003E006F
:104980003C41003C43003C45303A003C4D303A004D
:104990005661726961626C6520002067657370659D
:1049A000696368657274200050726F630070696E8D
:1049B0005374617465002573256300557365725FD8
:1049C00046756E6374696F6E3A20004F50433A002B
:1049D000204E6F64653A002043616E49443A0020DE
:1049E0004D65737361676553697A653A0020537446
:0649F0006174653A00004D
:00000001FF
